S01000004672656552544F532E737265634A
S113000058550020692C0000652C0000652C000068
S113001000000000000000000000000000000000DC
S1130020000000000000000000000000650C00005B
S11300300000000000000000410D0000850D0000DC
S1130040652C0000652C0000652C0000652C000068
S1130050652C0000652C0000652C0000652C000058
S1130060652C0000810B0000910B0000A10B000027
S1130070B10B0000C10B0000D10B0000652C000087
S1130080652C0000652C0000652C0000652C000028
S1130090652C00000000000000000000652C00003A
S11300A0652C0000652C0000652C0000652C000008
S11300B00000000010B5064C2378002B07D1054B37
S11300C0002B02D0044800E000BF0123237010BDC0
S11300D06C0000200000000004320000084B10B542
S11300E0002B03D00749084800E000BF0748036815
S11300F0002B00D110BD064B002BFBD09847F9E72D
S113010000000000700000200432000004320000EF
S113011000000000F0B5DE4657464E464546E0B5C1
S113012087B08046049116001F000022002300219E
S11301308B463F2401202100009601975C460394DE
S11301404446059413E02024641A0500E540A846BB
S113015014E0009C019D121BAB415C464D462C43B0
S1130160A346039C45462C430394013925D32024FC
S113017064420C19E7D40500A540A84604008C404D
S1130180A14692185B4114001D00059E4F463E4057
S1130190B446049E47463E40B246664657463E43F2
S11301A003D00600264332002B00009C019D9D4293
S11301B0DBD8CED19442D8D8CBE7039B584619005C
S11301C007B03CBC90469946A246AB46F0BD10B57C
S11301D0490840230024814202D2180010BD1C00AB
S11301E0091A631C9BB28842F9D94023FF2CF4D826
S11301F014800023F1E70000F0B583B00F0016006F
S113020008AA117804004C434022BC4202D91000D1
S113021003B0F0BD002B14D1020008000021194CDA
S1130220A04701003A0000230020174CA0470022F9
S11302300123121A8B41120C1B041A433280002230
S1130240E5E70022012BF9D10A00002300210D4C1F
S1130250A04702000B0000920193380000210A4CD1
S1130260A047050080239B0140229842CFD8790FF4
S1130270F800009A019BA047EA00821AD2B2520306
S11302802A43DBE75D2F00001501000010B582B0A2
S113029004000E4B1B78002B07D0002905D10B4B13
S11302A05B78834210D01D200CE001A90C70132050
S11302B0074B98471320074B9847044B5C70012267
S11302C01A70002002B010BD0020FBE78800002057
S11302D00D2B0000812A0000404B984231D00AD9EE
S11302E03F4B98424DD03F4B98425AD03E4B984298
S11302F037D0002070473D4B98420CD03C4B98427D
S1130300F7D1012917D000295DD0022915D003297E
S113031015D00020EEE7012907D0002951D0022989
S113032005D0032905D00020E4E73248E2E732484B
S1130330E0E73248DEE73248DCE73248DAE73248C1
S1130340D8E7012907D000293FD0022905D0032985
S113035005D00020CEE72D48CCE72D48CAE72D482C
S1130360C8E7012907D0002931D0022905D0032983
S113037005D00020BEE72848BCE72848BAE728484B
S1130380B8E7012907D0002923D0022905D0032981
S113039005D00020AEE72348ACE72348AAE723486A
S11303A0A8E7012907D0002915D0022905D003297F
S11303B005D000209EE71E489CE71E489AE71E4889
S11303C098E71E4896E7032094E71D4892E71D48E6
S11303D090E71D488EE71D488CE7C0460010004298
S11303E000180042001C00420014004200080042B1
S11303F0000C004203000500030006000300070090
S11304000300010003001E0003001F000300090095
S113041003000A0003000B00030011000300120094
S11304200300130003000D0003000E0003000F007F
S11304300300170003001800030019000300040060
S1130440030008000300100003000C000300160062
S113045030B587B00B4B6A4632CB32C232CB32C294
S1130460009B83420BD001239A0069465258824272
S113047006D00133062BF7D1002007B030BD00238E
S1130480D8B2FAE72431000010B50400037C002B35
S113049005D08368581CE168074B9847A1606368DE
S11304A0581CE168044B98476160A368591A4A4292
S11304B04A41227410BDC046512F000070B505009A
S11304C00C001420044B98470560C460002343606B
S11304D08360037470BDC046F92F000010B5036833
S11304E042689954014B984710BDC04689040000E6
S11304F0027C0023002A05D1436880681B1A5842F5
S11305004341DBB21800704770B504000D000A4B7C
S1130510984700280DD12368A2689B5C2B700023A8
S11305202374A368581CE168044B9847A160002019
S113053070BD01204042FBE7F1040000512F000090
S1130540F0B5DE4657464E464546E0B591B0050047
S11305500C00160029600800BA4B98470200236873
S11305600520DB0706D511B03CBC90469946A2464F
S1130570AB46F0BD236817309B07F4D4B249086A30
S1130580971C0123BB4003430B620FA92D27F35D86
S11305900B701432D3B202931800AC4B98470298F4
S11305A0AB4B9847F05D0021AA4B9847F37A6B71E7
S11305B02423F35CAB712523F35CEB71F37E2B7284
S11305C0337F6B722B68984618009E4B9847143003
S11305D000220E2306A98C4663441A80328A0292B2
S11305E08023DB019A4200D19AE00FD9C023DB01BA
S11305F0029A9A4200D18EE080231B029A4200D0D4
S11306001BE1032306930023079308E080239B0147
S11306109A4200D011E1102306930F3B07933368ED
S11306200593F3689B4673690393337E04932623EF
S1130630F35C9A4673689946002B00D19CE08023B2
S11306405B05994500D180E0737E002B02D0B37E18
S1130650424693730E2306AA944663441B8842467B
S11306609381059B5A461343039A13434A46134303
S1130670029F1F43049B1B021F4353465B071F43F8
S11306802723F35C002B01D104331F43737E9B02A9
S1130690327F52021343727F120213432422B25C4C
S11306A0520413432522B25C12041343B17AF27A42
S11306B0114319433389FF2B00D181E08022520476
S11306C0174319432C23F35C002B03D1624B9B7813
S11306D09B0701D580231F432A68D369002BFCD1D3
S11306E0434659602A68D369002BFCD143461F60F6
S11306F00EAB80221A7000225A70DA709A70336B33
S11307000A93736B0B93B36B0C93F36B02930D937C
S113071000270AAE63E008230693073B07937EE7AE
S113072033680593F3689B4673690393337E04939C
S11307302623F35C9A4673689946002B18D08023CD
S11307405B05994501D0002025E02723F35C002BAD
S113075000D079E7336A1F00C0B2404B98470100CC
S11307600E2206AB9C46624438003D4B984712E08B
S113077008230693002307932723F35C002B0ED052
S1130780069B0093079B0E2206A98C466244B16A1D
S1130790306A344FB847002800D0E4E654E7336A9F
S11307A01F00C0B22D4B98470100069B0093079B86
S11307B00E2206A88446624438002A4FB847EAE766
S11307C0F37E002B00D17DE78023DB041F4379E710
S11307D02000254B984707E00137042F0DD0F9B2CC
S11307E0BB0098590028F3D0431CF5D00EA908701B
S11307F0000CC0B21D4B9847EEE70023EB602B6161
S11308006B61AB61EB612B62AB626B620022EB85C7
S1130810AB853033EA540133EA540133EA540133EB
S1130820EA542868074B984704001149114B98472C
S1130830A400114BE550002095E6102306930023F5
S11308400793ECE651040000000400400D2B000067
S1130850812A00008D02000000200041292B0000A5
S1130860CF010000F9010000D9020000052C0000AE
S11308707D090000150B0000F8300020F8B50600D3
S11308800C00150007680A4B9847F38D9BB2002BA8
S113089003D0084B98470520F8BDF585054B9847CC
S11308A0B46205223323F254323BBB750020F3E7D4
S11308B0F923000039240000F8B504000D001600E7
S11308C007680F4B9847A38D9BB2002B03D00D4BA9
S11308D098470520F8BDA6850A4B9847656205220E
S11308E03223E2542E3BBB75237A002B01D0202304
S11308F0BB75637A0020002BECD00823BB75E9E7B5
S1130900F923000039240000931C9B00C31859608C
S11309103021012393401A00435C1343435470472E
S113092010B51723002A01D1180010BDC47905336E
S1130930002CF9D0014B98470300F5E77D0800002F
S113094010B51723002A01D1180010BD847905338E
S1130950002CF9D0014B98470300F5E7B9080000D3
S1130960002903D0012905D0172002E03223C05CFE
S1130970C0B270473323C05CC0B2FAE7F8B5800058
S1130980624BC5582C68E369002BFCD1237EA67DFD
S11309901E403023EB5C3122AF5C1F40F30722D5AD
S11309A0EB8D9BB2002B1CD0AA6A1378DBB2511CCE
S11309B0A962697901290ED09BB2DB05DB0D238581
S11309C0EB8D013B9BB2EB85002B0CD101332375DE
S11309D00133A37507E0517809020B430232AA627E
S11309E0EBE701232375B30706D502232375002201
S11309F03133EA54FB071AD4730765D5AB8D9BB228
S1130A00002B5FD0638BDBB21A0714D43F22134050
S1130A10002B34D09A0711D51A223223EA54303BE2
S1130A2063837B0750D528006B6998474CE0280006
S1130A30EB689847E0E737221340E9E75A0705D502
S1130A401E223223EA542E3B6383EAE7DA0705D5F4
S1130A5013223223EA54313B6383E2E7DA0605D5F5
S1130A6042223223EA54223B6383DAE720221A42E9
S1130A70D7D021323223EA54123B6383D1E7238D4A
S1130A80DB05DB0DDAB2696A0A706A6A511C6962B5
S1130A906979012910D0AB8D013B9BB2AB85002B4A
S1130AA012D10433237500222E33EA54BB070BD52D
S1130AB028002B69984707E01B0A53706B6A0133BF
S1130AC06B62E8E704232375F30604D5102323752A
S1130AD02376FB060ED4B30604D520232375237690
S1130AE03B070BD4330704D5082323752376BB06B1
S1130AF008D4F8BD2800EB699847ECE72800AB69F7
S1130B009847EFE72B6A28009847F2E7F83000206F
S1130B1070470000F0B50A4B1B78002B0CD1094F2D
S1130B20094E0A4D0024DE515A1914600433182B5F
S1130B30F9D10122024B1A708000024BC150F0BD62
S1130B408A0000208C000020110B0000F8300020E7
S1130B5000B583B009236A4613700133537001331F
S1130B6093700133D3700133137101335371034B09
S1130B7098476B46185603B000BDC04651040000A8
S1130B8010B5024B1B680020984710BD8C00002054
S1130B9010B5024B5B680120984710BD8C00002003
S1130BA010B5024B9B680220984710BD8C000020B2
S1130BB010B5024BDB680320984710BD8C00002061
S1130BC010B5024B1B690420984710BD8C0000200F
S1130BD010B5024B5B690520984710BD8C000020BE
S1130BE082B000230193064B1B68013301D072B617
S1130BF0FEE772B6019B002BFCD002B07047C046E2
S1130C0000000020000000000000000000000000C0
S1130C100B4A13681868203080F30988022080F397
S1130C201488BFF36F8F3FBCAE4608BC04BC62B6E9
S1130C301847C046C046C046C046C046C046C04627
S1130C408C2F002010B5031F802464041C60043B17
S1130C501960043B02491960143B1A60403810BD06
S1130C60E10B00007047000070B5134B1968FF22B8
S1130C7012040A431A601968FF2212060A431A6012
S1130C800E4D00242C600E4B1C6000200D4B984729
S1130C90FA2189000C4B984701380C4B1860072344
S1130CA02B600B4B1C600B4B98470B4B98470B4B23
S1130CB09847002070BDC04620ED00E010E000E041
S1130CC018E000E0F5290000452E000014E000E0E3
S1130CD000000020110C00007D1D0000E10B00004D
S1130CE080225205034B1A60BFF34F8FBFF36F8FFF
S1130CF07047C04604ED00E072B6044A136801333D
S1130D001360BFF34F8FBFF36F8F70470000002055
S1130D10064B1B68002B01D172B6FEE7013B034A68
S1130D201360002B00D162B67047C046000000205B
S1130D30EFF3108072B6704780F31088704700009C
S1130D40EFF309800E4B1A6820381060F0C0444657
S1130D504D4656465F46F0C008B572B601F00EF82F
S1130D6062B60CBC116808681030F0C8A046A946E9
S1130D70B246BB4680F309882038F0C81847C046FD
S1130D808C2F002010B5074B98470400064B98475A
S1130D90002803D080225205044B1A602000044B23
S1130DA0984710BD310D00001D1B000004ED00E04C
S1130DB0390D000070B50400430702D007239C439B
S1130DC00834134B9847134B1B68002B12D0124B5B
S1130DD01B68E418114A944213D8A34211D20D4A55
S1130DE01568ED180C4B1C600D4B9847002D0AD06C
S1130DF0280070BD07220B4B08339343054A136048
S1130E00E5E7074B9847084B98470025F0E7C046AD
S1130E10011B0000A4000020882F0020D72E000012
S1130E203D1C0000A80000203F2E0000002801D037
S1130E3072B6FEE77047000010B5064B1868064905
S1130E40064B9847431C04D0012203490448054B30
S1130E50984710BD503500204C350020090500008E
S1130E60103100202109000010B5064C2178064BF2
S1130E701868064B9847012221000548054B9847FE
S1130E8010BDC0464831002044310020DD0400007C
S1130E901031002041090000F0B5C64600B5050038
S1130EA00024002812D0114E114F124B984603E033
S1130EB0295D3868C04701342800B0478442F7D31D
S1130EC001210D480D4B9847002802D004BC9046E0
S1130ED0F0BD0B4C064B186821000A4B98470122C1
S1130EE021000548084B9847F0E7C046113100003F
S1130EF050350020DD04000010310020610900009D
S1130F004C350020090500002109000030B591B0DE
S1130F108025AD0029003648364CA047364B186072
S1130F2029003648A047364B18608023DB05009320
S1130F3000230193FF2269460A8100228B72CB723F
S1130F40012124206C46215401302154253163545D
S1130F50013163540A930531635401316354059399
S1130F602382E3762276227762761323A37662774E
S1130F70E1235B020893C4239B03039301235B4295
S1130F800C930D931F4B0E931F4B0F931F4D204C2F
S1130F906A4620492800A0470028F9D11B4D2C6837
S1130FA020001D4B98471F2318401E3B83401B4ABB
S1130FB013602A68D369002BFCD1236802221343EF
S1130FC02360124C002216492000164DA847012226
S1130FD015492000A8473122A35C03210B43A354E5
S1130FE0303A12492000124B984711B030BDC04628
S1130FF04C330020BD040000443100204C3100205B
S11310005035002003002A0003002B00103100207B
S11310104105000000180042510B000000E100E00F
S1131020390E000009090000690E00004831002053
S113103041090000030008334360012252428260E8
S1131040C36003610023036070470023036170479A
S113105043684B609A688A609A6851609960086135
S1131060036801330360704730B50C68020008322E
S1131070631C02D1026904E01A0053681D68AC4283
S1131080FAD253684B6099608A60516008610368C2
S11310900133036030BD03694268816891608268EE
S11310A0416851605A68904206D0002202611A6871
S11310B0013A1A601868704782685A60F5E70000C0
S11310C010B50400034B9847A46B034B9847604248
S11310D0604110BDF90C0000110D000070B5040052
S11310E01600856B026C002A0BD100202368834212
S11310F004D16068164B9847002363600135A563EB
S113110070BD002E0ED18068124B9847A368226CE4
S113111094466344A360002062689342EED323683C
S1131120A360EBE7C0680B4B9847236C5B42E26813
S1131130D218E26021688A4203D26268944663440A
S1131140E3600020022ED9D18542D7D0013DD5E7F6
S1131150D91F00000D30000070B582B001900A0064
S1131160846C002C05D0A16BE36B994203D372B657
S1131170FEE772B6FEE7A16B00268B4202D8300070
S113118002B070BD4523E55C6DB201A920000A4B95
S1131190984706006B1C0AD1636A002BEFD020002D
S11311A02430064B98470028E9D00126E7E70135AB
S11311B06DB24523E554E2E7DD1000009D1E0000FA
S11311C010B50C00026C002A0BD0C3689B18C360D6
S11311D041688B4201D30368C360C1682000014B9E
S11311E0984710BD0D300000F8B50700254B98470F
S11311F04523FC5C64B2002C1CDD234E234D0BE024
S11312007B6A002B16D038002430A84700280ED162
S1131210013C64B2002C0DD0BB6C002BF0D000213B
S11312203800B0470028F3D0194B9847F0E7184B23
S11312309847EDE7FF224523FA54164B9847114B84
S113124098474423FC5C64B2002C14DD3B69002BFA
S113125011D03D0010350D4E06E0013C64B2002C67
S113126009D03B69002B06D02800B0470028F4D0F1
S1131270074B9847F1E7FF224423FA54054B98475C
S1131280F8BDC046F90C0000591100009D1E000075
S1131290AD1F0000110D000070B504000D00002802
S11312A021D0174B98472268216CE36B4B43D0182D
S11312B060600020A063A2605B1AD318E360FF2380
S11312C04422A3540132A354002D11D12369002BCD
S11312D005D0200010300B4B9847002805D10A4B4D
S11312E09847012070BD72B6FEE7084B9847F6E7B1
S11312F020001030064DA84720002430A847EEE710
S1131300F90C00009D1E0000110D0000E10C00000E
S113131035100000F8B506000D001700002801D1B3
S113132072B6FEE70800704354300B4B9847041E16
S113133010D0002D03D003005433036000E020607C
S1131340E663256401212000044B98475023E754A9
S11313500023A3642000F8BDB50D0000991200001D
S1131360F0B5CE46474680B585B004000F00019223
S11313701D0000280CD000290CD0022D0FD04E4B9C
S11313809847002810D1019B002B11D072B6FEE7BC
S113139072B6FEE7036C002BEFD072B6FEE7E36B88
S11313A0012BECD072B6FEE70026444B98464CE085
S11313B00026FAE72A0039002000414B9847A36C25
S11313C0002B0FD0290020003E4B9847002801D065
S11313D03D4B98473D4B9847012005B00CBC9046C7
S11313E09946F0BD636A002B08D020002430384BA6
S11313F098470028EED0344B9847EBE70028E9D013
S1131400314B9847E6E7314B98470020E5E72F4BEF
S1131410984701A902A82F4B9847002844D1274B8D
S11314209847A36B9946E66B284B9847B14535D14D
S1131430200010300199284B98472000274B9847EB
S1131440274B9847002826D00126C047A36BE26BA0
S11314509342AFD3022DADD0019B002BD3D0002EED
S113146002D102A81F4B9847184B98471E4B984728
S1131470124B98474423E35C5BB2013302D1002250
S11314804423E2544523E35C5BB20133BFD1002221
S11314904523E254BBE70C4B9847D5E720000F4B9C
S11314A098470F4B9847CFE720000C4B98470C4BBD
S11314B09847002091E7C046B91F0000F90C0000CE
S11314C0DD10000059110000E10C0000110D0000B6
S11314D09D1E00003D1F0000391E0000E9110000A0
S11314E03D1C0000251F0000011B0000F0B583B067
S11314F00400019116001D00002812D0019B002B4E
S113150011D0022D14D0284B98470090A36BE26BA6
S11315109A422FD800250098244B9847280003B0FE
S1131520F0BD72B6FEE7036C002BEAD072B6FEE79C
S1131530E36B012B1AD072B6FEE7636A0125002B18
S1131540E9D0200024301A4B98470028E3D0002E1D
S11315500AD001233360DEE77B1C5BB24522A3542F
S11315600125D8E70125D6E70125D4E70E4B984796
S11315700090A36B4523E75C7FB22A000199200009
S11315800C4B98477B1CE7D1A36C002BD5D02900CA
S11315902000094B984701250028BCD0002EE1D03B
S11315A001233360B7E7C046310D0000390D000058
S11315B09D1E0000DD10000059110000F0B5C64664
S11315C000B584B004000F00019200280AD000295D
S11315D00AD0424B984700280BD1019B002B0CD01A
S11315E072B6FEE772B6FEE7036C002BF1D072B65A
S11315F0FEE700263A4B98462FE00026FAE739002A
S11316002000384B9847013DA5632369002B07D080
S113161020001030344B9847002801D0334B9847B2
S1131620334B9847012004B004BC9046F0BD304BC6
S113163098470020F7E702A82E4B984716E00022AF
S11316404423E2541DE000224523E2541EE020001E
S1131650294B9847294B98470126C047A56B002D75
S1131660CDD1019B002BE2D0002EE4D0204B984733
S1131670234B98471A4B98474423E35C5BB20133EE
S1131680DDD04523E35C5BB20133DCD0184B9847D3
S113169001A902A81B4B9847002813D120001A4B1C
S11316A098470028D3D0200024300199174B98473D
S11316B02000114B9847114B98470028CCD10B4B75
S11316C09847C9E720000C4B98470C4B98472000DB
S11316D00D4B98470028BFD00020A4E7B91F000095
S11316E0F90C0000C11100009D1E0000E10C000077
S11316F0110D0000251F0000E91100003D1C000031
S1131700011B00003D1F0000C1100000391E000035
S113171070B504000D001600114B98474423E35C98
S11317205BB201330DD04523E35C5BB201330CD0D3
S11317300C4B9847A36B002B0BD020000A4B984707
S113174070BD00224423E254EDE700224523E25415
S1131750EEE72000243032002900044B9847ECE7E0
S1131760F90C0000110D0000E9110000651E0000D5
S1131770084B1B681B68002B07D0064B1B68DB68F3
S1131780DB685A68044B1A60704701225242024BCC
S11317901A60F9E7902F002040300020F0B5D646BB
S11317A04F464646C0B5144B9946144B9846144FC1
S11317B0144B9A464B461B68002B16D0C047FB6857
S11317C0DD68281DD047104A1368013B13600A4C9A
S11317D02368013B23600D4B9847286B0C4EB047A0
S11317E02800B0472368002BE8D10A4B1B68012B63
S11317F0E0D9094B9847DDE700300020F90C0000E0
S11318007430002097100000FC2F0020110D000000
S11318102D0E0000982F0020E10C000070B504008C
S11318200D00174B1E68174B18680430164B984769
S1131830631C13D03419134B1B685C60A64216D882
S1131840124B18680F4B19680431114B9847114B10
S11318501B689C4212D20F4B1C600FE0002DE9D094
S1131860084B196804310C480C4B984706E00C4BA4
S11318701868044B19680431054B984770BDC0467D
S1131880883000208C2F002097100000902F00201B
S1131890691000004030002060300020511000002A
S11318A0942F0020F0B5C64600B584B001900D0019
S11318B00293970038005F4B9847061E00D189E0D9
S11318C054205C4B9847041E00D180E006633A0024
S11318D0A5213000584B98473A1F236B9C4662441D
S11318E007239A4390462A782D33E2542B78002B11
S11318F00DD001352300353320003C302A781A708E
S11319002A78002A03D0013501338342F6D100221C
S11319103B23E2540A9F042F00D90427E76267643B
S11319200026A664231D03931800444DA8472000F5
S11319301830A84724610523DB1BA3616462E664B5
S11319405023E654029A019940463D4B9847206043
S11319500B9B002B00D01C603A4B98473A4A136803
S113196001331360394B1B68002B36D0384B1B688E
S1131970002B07D1354B1B68DB6AE26A934201D81E
S1131980324B1C60334A136801331360E363E36A28
S1131990314A1268934201D92F4A13609800C01843
S11319A080002E4B181803992D4B98472D4B9847C0
S11319B0274B1B680120002B05D0244B1B68DA6AD7
S11319C0E36A9A4231D304B004BC9046F0BD3000BF
S11319D0254B984701204042F5E71C4B1C601368D7
S11319E0012BCFD11D4F3800204EB04738001430A2
S11319F0B04738002830B04738003C30B047380092
S1131A005030B0471A4B98461800B047194F380069
S1131A10B0471948B0471948B0471948B047194B5F
S1131A2042461A60184B1F60ACE7184B98470120D8
S1131A30C9E7C046B50D00001F3000004B10000080
S1131A40450C0000F90C0000FC2F00208C2F002016
S1131A505C3000200C30002010300020982F002033
S1131A6051100000110D00002D0E00003510000073
S1131A70143000202830002048300020743000202A
S1131A8060300020902F0020942F0020E10C0000F3
S1131A9010B582B0114B01930023009364221049C6
S1131AA01048114CA047012803D0431C13D002B0A6
S1131AB010BD0E4B98470128F7D172B6012252424D
S1131AC00B4B1A6002320B4B1A6000220A4B1A604D
S1131AD00A4B9847EBE772B6FEE7C0463C3000205D
S1131AE03C3100009D170000A5180000FD200000F7
S1131AF0403000205C30002088300020690C000059
S1131B00024A1368013313607047C046083000204E
S1131B10014B18687047C04688300020F0B583B088
S1131B20384B1B68002B60D1374B1D6801351D6095
S1131B30002D12D1354B1B681B68002B01D072B6E7
S1131B40FEE7324A1168324B186810601960314A56
S1131B50136801331360304B9847304B1B680024E3
S1131B609D4233D30024294F3B681B68002B29D0A6
S1131B70264B1B68DB68DE6873689D4232D3331DD5
S1131B8001931800264B9847B36A002B03D030000A
S1131B901830234B9847F36A224A1268934201D9BA
S1131BA0204A13609800C01880001F4B1818019930
S1131BB01E4B98471E4B1B68F26ADB6A9A42D3D3CA
S1131BC00124D1E701225242144B1A60184B1B68BE
S1131BD0DA6A93009B189B00134A9B58012B09D97E
S1131BE0012407E00D4A1360F0E7124A1368013339
S1131BF013600024104B1B68002B00D0012420002C
S1131C0003B0F0BD0830002088300020902F002061
S1131C10942F002044300020711700004030002031
S1131C209710000010300020982F00205110000061
S1131C308C2F0020043000208C300020F8B5304B6D
S1131C401B68002B01D172B6FEE72E4B98472C4B34
S1131C501A68013A1A601B680024002B03D12A4B2E
S1131C601B68002B03D1294B98472000F8BD284D51
S1131C702F002B68002B22D0FB68DC682000183072
S1131C80244B9847261D3000224B9847E36A224A8A
S1131C901268934201D9204A13609800C01880004A
S1131CA01E4B181831001E4B98471E4B1B68DB6AED
S1131CB0E26A9A42DDD301221B4B1A60D9E7002C59
S1131CC001D01A4B98471A4B1C68002C0ED0194FA0
S1131CD0154E012502E0013C002C04D0B847002831
S1131CE0F9D03560F7E70022114B1A600E4B1B68E0
S1131CF00024002BB7D0104B98470134B3E7C046FB
S1131D0008300020F90C0000FC2F0020110D000009
S1131D10483000209710000010300020982F002039
S1131D20511000008C2F00208C300020711700000F
S1131D30043000201D1B0000E10C000010B5041E3F
S1131D400FD0094B1B68002B01D072B6FEE7074B7E
S1131D50984700212000064B9847064B98470028D7
S1131D6001D1054B984710BD08300020011B00002D
S1131D701D1800003D1C0000E10C000010B5284BAC
S1131D801B68002B25D10022264B1A60264B1A68AB
S1131D901B6812681B6B9A4205D8234B1868196894
S1131DA03431224B9847224B1B689A00D218920078
S1131DB020495258002A10D1002B08D0013B9A0028
S1131DC0D21892005258002A07D1002BF6D172B6CD
S1131DD0FEE70122134B1A6010BD16489A00D11871
S1131DE0890041184C6864684C60D218920008322B
S1131DF0821894420BD09A00D21892000D498A1886
S1131E005268D168084A1160094A1360E4E76068BF
S1131E109A00D218920007498A185060EBE7C0462E
S1131E20083000208C3000208C2F0020412E000030
S1131E3010300020982F002010B50C00002801D18C
S1131E4072B6FEE7044B19681831044B9847012118
S1131E502000034B984710BD8C2F00206910000010
S1131E601D18000070B50C00150000280DD0084B9B
S1131E7019681831074B9847002D01D0012464429A
S1131E8029002000044B984770BD72B6FEE7C04697
S1131E908C2F0020511000001D18000070B5C3687D
S1131EA0DC68002C27D0250018352800154B9847EE
S1131EB0154B1B68002B20D1251D2800114B98477A
S1131EC0E36A124A1268934201D9104A13609800D7
S1131ED0C01880000E4B181829000E4B98470E4B63
S1131EE01B68E26ADB6A00209A4203D901220B4B89
S1131EF01A60013070BD72B6FEE729000848054B30
S1131F009847ECE7971000000830002010300020BC
S1131F10982F0020511000008C2F00208C300020BE
S1131F2048300020034B1B680360034B1B6843606D
S1131F307047C046443000208830002070B5060049
S1131F400D0000281BD000291BD0134B9847134BBE
S1131F501A6871682B68581C1CD0114800683468D2
S1131F60844202D001248A4205D2521A9A420AD3E8
S1131F7000232B6001240B4B9847200070BD72B6E0
S1131F80FEE772B6FEE79B1A2B603000064B9847BB
S1131F900024F0E70024EEE7F90C0000883000206C
S1131FA044300020110D0000251F00000122014BC8
S1131FB01A6070478C300020054B1B680120002BF1
S1131FC004D0044B18684342584140007047C0464F
S1131FD05C3000200830002070B5041E2CD0184B53
S1131FE01B68984201D072B6FEE7836C002B01D1C6
S1131FF072B6FEE7013B8364C26A416C8A421DD01B
S11320000020002B17D1251D28000E4B9847636C28
S1132010E3620522D21AA2610B4A1268934201D9E3
S1132020094A13609A00D3189B000848C018290075
S1132030074B9847012070BD0020FCE70020FAE719
S11320408C2F00209710000010300020982F0020C3
S11320505110000010B54160006191420BD8D21AB2
S1132060012483699A4211D2011D094B1868094B56
S1132070984700240AE09A4202D20124994205D2E8
S1132080011D054B1868034B98470024200010BD20
S113209094300020691000009030002070B50E4B81
S11320A098470E4B1B68002B02D00D4B984770BD10
S11320B00C4D28000C4EB0470C4C2000B0470C4B84
S11320C01D600C4B1C6000220C2105200A4B984714
S11320D0024B1860E9E7C046F90C0000C430002048
S11320E0110D00009830002035100000AC300020A5
S11320F090300020943000201513000010B582B0F9
S11321000A4B98470A4B1B68002B0DD0094B0193CF
S1132110022300930023802207490848084CA04763
S1132120002801D002B010BD72B6FEE79D20000069
S1132130C4300020C83000206C3100006922000047
S1132140A518000030B585B004001D00002814D087
S1132150134B1868002821D0019102920394052999
S113216015DC104B9847022809D00D4B1868002342
S1132170002201A90C4CA0470EE072B6FEE7084B02
S113218018680023089A01A9074CA04704E000231B
S11321902A0001A9054CA04705B030BD0020FBE78B
S11321A0C4300020B91F000061130000ED140000CA
S11321B0F0B5D6464F464646C0B582B08046234B5E
S11321C098478246224B1B68984217D30023424605
S11321D013601F4B52461A60504602B01CBC904616
S11321E09946A246F0BD002300933A000021200046
S11321F0184CA047002804D172B6FEE7164D174BC1
S113220099462B681A68002A17D0DB681F68DC68B7
S1132210261D3000C8472000636A9847E369012BF4
S1132220EFD1A369FB189F42DDD2636024610A4B9E
S1132230186831000A4B9847E3E70A4A06491068D0
S113224008601360012342461360C2E7111B0000BB
S1132250C03000204521000090300020971000007D
S11322606910000094300020F0B589B0534B9847B2
S1132270534F544B1B681A68002A0ED0DB681C6845
S1132280514B984705A8514B98470500059B002BD7
S11322905FD1844236D900220FE04B4B984705A802
S11322A04A4B98470500059B002B52D1484B1B68AD
S11322B01B685A425A41D2B20024611B454B18682C
S11322C0454B9847454B984700283FD0414D444CD7
S11322D0002205A92868A0470028CAD0059B0393BB
S11322E0002BF5DB079E7369002B01D0301DB84726
S11322F004A8364B9847059B092BE9D89B00394A1B
S1132300D3589F46354B98472E4B1B68DB68DE68D5
S1132310301D2B4B9847F369012B03D0736A3000AF
S11323209847D3E7B369E11823002A0030002E4D03
S1132330A8470028F2D00023009322000021300097
S11323402A4CA0470028E9D172B6FEE7284B9847EB
S1132350BCE7224B9847B9E7069BB26994466344AD
S11323601900069B020030001F4CA0470028AED085
S11323703000736A9847F369012BA8D1069BB169B1
S11323808C4663441A000023009300213000174C4C
S1132390A04700289BD172B6FEE70699B1610029D7
S11323A006D041180300020030000F4CA0478EE70E
S11323B072B6FEE730000F4B984788E73D2E0000C9
S11323C09710000090300020011B0000B121000094
S11323D094300020C4300020111700003D1C000080
S11323E0BD150000443100005520000045210000C7
S11323F0E10C00002D0E00000C4B1B68002B06D1D5
S1132400EFF31083002B07D00022094B1A70074A00
S1132410136801331360704772B6BFF35F8F0022F5
S1132420044B1A700132024B1A70F0E7CC300020D2
S1132430D030002004000020084B1A68013A1A60CA
S11324401B68002B09D1064B1B78002B05D00122F9
S1132450044B1A70BFF35F8F62B67047CC30002014
S1132460D030002004000020F0B583B001AC012579
S113247065700027A770257021001720064EB0470D
S113248080221204054B9A61277065702100372061
S1132490B04703B0F0BDC046A12400000044004191
S11324A000B583B001AB80221A700A785A704A785A
S11324B09A708A78DA701900014B984703B000BD0E
S11324C0052C000010B5082803D880001C4B1B58AD
S11324D09F46002032E01B4B18692FE01A4B1B6A01
S11324E09B059B0F1948D84028E0164B586925E0F6
S11324F0144B1B6800209B0720D513491022CB687E
S11325001A42FCD00F4B1A6824231340042B01D029
S11325100F4813E000200F4B98470A4B9B681B049D
S11325201B0C58430AE05023074AD35C00205B0786
S113253004D5044BD86801E08020000210BDC046D9
S113254074310000D43000200008004000127A00EA
S1132550006CDC02292B000070B50C490B6A04786E
S1132560857840780122104080014026B34303431C
S11325702A40D201802083431343032222401202C3
S11325800348034013430B6270BDC046000800407B
S1132590FFFCFFFFF0B5DE4657464E464546E0B524
S11325A00100264B9B469B8A457800784242424173
S11325B091468878CA7894460A7990464E7B0F7B78
S11325C08C7B8A681E494A6101214A4692009146E1
S11325D0042293434A46134342460A40D20090469B
S11325E0082293434246134362460A40120194462A
S11325F01022934362461343084040012022934330
S113260003430F40BF01402083433B430E40F60188
S1132610403083433343793805402D020948034051
S11326202B4321400903084803400B435A46938235
S11326303CBC90469946A246AB46F0BD000800401B
S1132640D4300020FFF8FFFFFFEFFFFF10B5037A3F
S11326509B061B0C42899205920D134318494B604B
S11326608379C2791343428884882243134342788E
S1132670D20113430B600378042B11D0202B0ED10D
S1132680037B9B06028A1343C28912040D490A4044
S113269013430B4A936011680B4B0B43136010BD3B
S11326A0037B9B06028A1343C289120405490A402C
S11326B01343034A9360136804210B431360EEE74A
S11326C0D43000200000FF0324040000082803D8AD
S11326D08000254B1B589F46172044E0234A136A69
S11326E002210B43136200203DE0204A936902213A
S11326F00B439361002036E01C4A138A02210B43EA
S1132700138200202FE0194A938A02210B439382FB
S1132710002028E016490B68022213430B60134B78
S11327209A8419000E32CB681A42FCD0104A916880
S11327300E4BD96252689A6200229A8419001032B0
S1132740CB681A42FCD00A4B1B689BB2074A93849D
S1132750002008E0054944228B5C022003438B548B
S1132760002000E00020704798310000000800407D
S1132770D4300020F0B58FB0C222D200474B9A600B
S1132780474A53681E218B431A390B435360022274
S113279001AB1A700024434DE0B201A9A8470134EB
S11327A0252CF9D10AA80023037083708022120219
S11327B08260C37001220271037383730232427018
S11327C04373394B98470520384B984733490222C5
S11327D0CB681A42FCD0314A938A80210B439382FE
S11327E005AB00210022598099809A71DA713F313A
S11327F059813B3919705A702D4B1B689B0E3F2B26
S11328004AD005A803722B4B038207230373383382
S1132810C381294B984704A800254570012686707A
S11328200570264B98470620204FB847244B9847FD
S113283001AC029665702572657205232370210030
S11328400120204B984701201F4B984726702100F8
S11328500020144B984700201C4B98470720B8478A
S11328600E49D022CB681340D02BFBD1184A002349
S1132870137253729372D37201A901224A604B708E
S11328800B724B7207330B7000200E4B98470020DD
S11328900D4B98470FB0F0BD203BB2E70008004055
S11328A0004000410D2B000095250000CD260000BE
S11328B024608000B90500004D2600005925000061
S11328C0D5280000F9280000B1290000812A000061
S11328D000040040064A936908210B4393610122D6
S11328E0044B1A7019000B781342FCD17047C04690
S11328F000040040000C004070B5060004000D7890
S11329002D0205434B78002B02D08023DB021D43AC
S11329104B7A002B02D080231B031D4348680128F7
S113292010D9431E184234D1022830D90223002280
S113293001325B009842FBD8120232431400802318
S11329405B031D430B7A002B02D080239B031D43A2
S1132950134A53785BB2002BFBDB124B9847124BA4
S11329601E700F4A53785BB2002BFBDB0C4B9C6050
S11329701A0053785BB2002BFBDB094A53688021B1
S113298049020B401D435560084B984770BD002217
S1132990D2E70402344380239B021D43D2E7C0469E
S11329A0000C0040F9230000080C0040392400000A
S11329B010B504000B4A53785BB2002BFBDB0A4BC7
S11329C098470A4B1C70074A53785BB2002BFBDB19
S11329D0044A516880235B020B435360044B9847BD
S11329E010BDC046000C0040F9230000040C004058
S11329F03924000070B504001A4A53785BB2002BE6
S1132A00FBDB194B9847194B1C70164A53785BB281
S1132A10002BFBDB134E7068C004C00E144B9847A8
S1132A200500124B1C707668F602F60F114B1C70F1
S1132A300C4A53785BB2002BFBDB0A4B9C682402E4
S1132A40240C0D4B9847002E07D1012C07D92100E7
S1132A5028000A4B9847050001E00134E5402800AE
S1132A6070BDC046000C0040F9230000040C004077
S1132A70C5240000080C004039240000452E000045
S1132A8010B50400064B9847064B1C70064A538841
S1132A908021C9010B435380044B984710BDC046A5
S1132AA0F9230000020C0040000C0040392400000F
S1132AB010B504000F4B98470F4B1C700F4A5388F6
S1132AC01B05180F53880E490B40538053880D493A
S1132AD00B40538011008022D2014B881342FCD159
S1132AE006494A8803020648024013434B80064BBA
S1132AF0984710BDF9230000020C0040000C004070
S1132B00FFF0FFFFFFBFFFFF3924000010B50C7872
S1132B1024020443024B9847A4B2024B5C8010BDCC
S1132B20B12A0000000C004010B50400064B984781
S1132B30064B1C70064B5C882405240F054B9847F4
S1132B402000054B984710BDF9230000020C0040FB
S1132B50000C004039240000F529000030B5D3787A
S1132B60002B35D11378802B29D01B0680246402D6
S1132B70234354780225AC4306D19478002C20D109
S1132B808024A402234341605478013C012C1CD9C5
S1132B900D042D0CA024E4052C431C4384620D0C6D
S1132BA0D02424062C431C438462D478002C22D1E4
S1132BB05B031CD59378012B1ED0416117E00023E1
S1132BC0D7E7C024E4022343DDE70D4C2340DFE7CD
S1132BD041600C04240CA023DB05234383620C0C0A
S1132BE0D0231B0623438362D378002B03D153786D
S1132BF0013B012B02D930BD8161F8E78160FAE71E
S1132C00FFFFFBFF10B50A00C1090023002904D10E
S1132C104309DB0105498C4663441F2420400121FC
S1132C2081401800024B984710BDC0460044004143
S1132C305D2B00007047000010B5054B9847054B0D
S1132C409847054B9847054B9847054B984710BD47
S1132C507527000069240000352C0000352C000085
S1132C60352C0000FEE70000F8B52A4A2A4B9A42A8
S1132C7011D01A00294B9A420DD2294A03339B1AC8
S1132C809B0801339B000022234822498C5884501E
S1132C9004329A42FAD1234A234B9A420AD2D343AA
S1132CA021495B1803218B4304339B18002102C282
S1132CB09342FCD11D4AFF211D4B8B439360FD3988
S1132CC090235B001B4AD1501B4AD3780325AB43A6
S1132CD002242343D370D3780C27BB430826334301
S1132CE0D370164B987B3022904320221043987364
S1132CF0997BB943314399739A7BAA4322439A73CC
S1132D000F4A536880210B4353600E4B98470E4B78
S1132D109847FEE704320000000000206C00002009
S1132D20040000206C0000205835002000ED00E075
S1132D3000000000007000410050004100480041C4
S1132D4000400041B12F0000092E00000300064A94
S1132D501268002A04D0044A1068C318136070472C
S1132D600249014A1160F6E7EC3000205855002072
S1132D70F0B5C64600B5074E80273F04B846434623
S1132D80B361FA256D002800034CA0477761280041
S1132D90A047F4E7004400413D1D0000F0B5C646DD
S1132DA000B5074E80273F04B8464346B3619625D5
S1132DB06D002800034CA04777612800A047F4E782
S1132DC0004400413D1D000070B582B0002601960C
S1132DD0012500950023822206490748074CA04795
S1132DE0019600950023822205490648A04702B0B7
S1132DF070BDC046BC310000712D0000A518000054
S1132E00C83100009D2D000010B5064B9847064BB5
S1132E1098470648064B9847064B9847064B9847F1
S1132E20002010BD392C00000D0F0000D43100002B
S1132E30990E0000C92D0000911A00007047FEE7AA
S1132E40FEE70000002243088B4274D303098B423F
S1132E505FD3030A8B4244D3030B8B4228D3030C66
S1132E608B420DD3FF22090212BA030C8B4202D308
S1132E701212090265D0030B8B4219D300E0090A30
S1132E80C30B8B4201D3CB03C01A5241830B8B4239
S1132E9001D38B03C01A5241430B8B4201D34B0322
S1132EA0C01A5241030B8B4201D30B03C01A524187
S1132EB0C30A8B4201D3CB02C01A5241830A8B420C
S1132EC001D38B02C01A5241430A8B4201D34B02F5
S1132ED0C01A5241030A8B4201D30B02C01A524159
S1132EE0CDD2C3098B4201D3CB01C01A524183090D
S1132EF08B4201D38B01C01A524143098B4201D347
S1132F004B01C01A524103098B4201D30B01C01A71
S1132F105241C3088B4201D3CB00C01A52418308EB
S1132F208B4201D38B00C01A524143088B4201D318
S1132F304B00C01A5241411A00D201465241104678
S1132F407047FFE701B5002000F006F802BDC04657
S1132F500029F7D076E770477047C046F0B5CE46F3
S1132F60474615042D0C2E0080B50704140C3F0CA5
S1132F709946030C7E435D43674363437F19340CD6
S1132F80E4199C46A54203D980235B029846C444B5
S1132F904B46514343433604360C250C2404654404
S1132FA0A4195918491920000CBC90469946F0BD43
S1132FB070B500260C4D0D4C641BA410A64209D11B
S1132FC0002600F00FF90A4D0A4C641BA410A64217
S1132FD005D170BDB300EB5898470136EEE7B30056
S1132FE0EB5898470136F2E7F0310000F031000069
S1132FF0F0310000F431000010B5034B01001868F3
S113300000F016F810BDC04608000020002310B5DB
S11330109A4200D110BDCC5CC4540133F8E70300DC
S11330208218934200D1704719700133F9E7000008
S1133030032370B5CD1C9D43083506000C2D1ED20C
S11330400C25A9421DD8300000F069F8254A1468FF
S11330502100002919D1244C2368002B03D130000E
S113306000F044F820602900300000F03FF8431CD1
S11330702CD10C233000336000F052F803E0002D13
S1133080DFDA0C233360002070BD0B685B1B1AD49D
S11330900B2B03D90B60CC18256003E08C420ED1B6
S11330A063681360300000F03BF8200007220B3007
S11330B0231D9043C31AE7D05A42E250E4E74B6819
S11330C063600C00EEE70C004968C2E70323C41CEC
S11330D09C43A042E0D0211A300000F007F8431CC2
S11330E0DAD1C6E7F0300020F4300020002370B5B8
S11330F0064C050008002360FFF728FE431C03D19B
S11331002368002B00D02B6070BDC04654350020CE
S11331100023C25C0133002AFBD1581E704770475C
S11331207047000000080042000C004200100042FA
S11331300014004200180042001C004249444C455F
S1133140000000005823000058230000582300000A
S1133150D02200009A230000B4230000582300006A
S113316058230000D02200009A230000546D7220DE
S113317053766300D6240000D2240000D224000039
S11331803825000038250000EA240000DC24000073
S1133190F024000026250000F8260000D8260000B0
S11331A0D826000064270000EA2600000627000055
S11331B0DC26000014270000542700004C4544205E
S11331C05461736B203100004C4544205461736B8F
S11331D03200000048656C6C6F20576F726C640D90
S11331E00A000000F8B5C046F8BC08BC9E4670470B
S11331F0DD000000F8B5C046F8BC08BC9E46704728
S1073200B500000011
S1133204AAAAAAAA010000000C00002000000000E1
S113321400000000000000000000000000000000A6
S11332240000000000000000000000000000000096
S11332340000000000000000000000000000000086
S11332440000000000000000000000000000000076
S11332540000000000000000000000000000000066
S10F32640000000000000000000000005A
S9032C6967
